{
  "_format": "hh-sol-artifact-1",
  "contractName": "Swaptoken",
  "sourceName": "contracts/Swaptoken.sol",
  "abi": [
    {
      "inputs": [],
      "stateMutability": "nonpayable",
      "type": "constructor"
    },
    {
      "inputs": [],
      "name": "currentLinkBalance",
      "outputs": [
        {
          "internalType": "uint256",
          "name": "",
          "type": "uint256"
        }
      ],
      "stateMutability": "view",
      "type": "function"
    },
    {
      "inputs": [],
      "name": "currentWmaticBalance",
      "outputs": [
        {
          "internalType": "uint256",
          "name": "",
          "type": "uint256"
        }
      ],
      "stateMutability": "view",
      "type": "function"
    },
    {
      "inputs": [
        {
          "internalType": "uint256",
          "name": "_amount",
          "type": "uint256"
        }
      ],
      "name": "depositLink",
      "outputs": [],
      "stateMutability": "nonpayable",
      "type": "function"
    },
    {
      "inputs": [
        {
          "internalType": "uint256",
          "name": "_amount",
          "type": "uint256"
        }
      ],
      "name": "depositWmatic",
      "outputs": [],
      "stateMutability": "nonpayable",
      "type": "function"
    },
    {
      "inputs": [
        {
          "internalType": "uint256",
          "name": "_amount",
          "type": "uint256"
        }
      ],
      "name": "estimateBTCcToETH",
      "outputs": [
        {
          "internalType": "uint256",
          "name": "",
          "type": "uint256"
        }
      ],
      "stateMutability": "view",
      "type": "function"
    },
    {
      "inputs": [
        {
          "internalType": "uint256",
          "name": "_amount",
          "type": "uint256"
        }
      ],
      "name": "estimateBUSDtoETH",
      "outputs": [
        {
          "internalType": "uint256",
          "name": "",
          "type": "uint256"
        }
      ],
      "stateMutability": "view",
      "type": "function"
    },
    {
      "inputs": [
        {
          "internalType": "uint256",
          "name": "_amount",
          "type": "uint256"
        }
      ],
      "name": "estimateDAItoETH",
      "outputs": [
        {
          "internalType": "uint256",
          "name": "",
          "type": "uint256"
        }
      ],
      "stateMutability": "view",
      "type": "function"
    },
    {
      "inputs": [
        {
          "internalType": "uint256",
          "name": "_amount",
          "type": "uint256"
        }
      ],
      "name": "estimateEthcToLink",
      "outputs": [
        {
          "internalType": "uint256",
          "name": "",
          "type": "uint256"
        }
      ],
      "stateMutability": "view",
      "type": "function"
    },
    {
      "inputs": [
        {
          "internalType": "uint256",
          "name": "_amount",
          "type": "uint256"
        }
      ],
      "name": "estimateLinkToEth",
      "outputs": [
        {
          "internalType": "uint256",
          "name": "",
          "type": "uint256"
        }
      ],
      "stateMutability": "view",
      "type": "function"
    },
    {
      "inputs": [
        {
          "internalType": "uint256",
          "name": "_amount",
          "type": "uint256"
        }
      ],
      "name": "estimateUSDTtoETH",
      "outputs": [
        {
          "internalType": "uint256",
          "name": "",
          "type": "uint256"
        }
      ],
      "stateMutability": "view",
      "type": "function"
    },
    {
      "inputs": [],
      "name": "ethToken",
      "outputs": [
        {
          "internalType": "contract IERC20",
          "name": "",
          "type": "address"
        }
      ],
      "stateMutability": "view",
      "type": "function"
    },
    {
      "inputs": [],
      "name": "getCurrentPrice",
      "outputs": [
        {
          "internalType": "int256",
          "name": "",
          "type": "int256"
        }
      ],
      "stateMutability": "view",
      "type": "function"
    },
    {
      "inputs": [],
      "name": "getCurrentPriceBTCETH",
      "outputs": [
        {
          "internalType": "int256",
          "name": "",
          "type": "int256"
        }
      ],
      "stateMutability": "view",
      "type": "function"
    },
    {
      "inputs": [],
      "name": "getCurrentPriceBUSDETH",
      "outputs": [
        {
          "internalType": "int256",
          "name": "",
          "type": "int256"
        }
      ],
      "stateMutability": "view",
      "type": "function"
    },
    {
      "inputs": [],
      "name": "getCurrentPriceDAIETH",
      "outputs": [
        {
          "internalType": "int256",
          "name": "",
          "type": "int256"
        }
      ],
      "stateMutability": "view",
      "type": "function"
    },
    {
      "inputs": [],
      "name": "getCurrentPriceUSDTETH",
      "outputs": [
        {
          "internalType": "int256",
          "name": "",
          "type": "int256"
        }
      ],
      "stateMutability": "view",
      "type": "function"
    },
    {
      "inputs": [],
      "name": "linkToken",
      "outputs": [
        {
          "internalType": "contract IERC20",
          "name": "",
          "type": "address"
        }
      ],
      "stateMutability": "view",
      "type": "function"
    },
    {
      "inputs": [
        {
          "internalType": "uint256",
          "name": "_amount",
          "type": "uint256"
        }
      ],
      "name": "swapEthToLink",
      "outputs": [],
      "stateMutability": "nonpayable",
      "type": "function"
    },
    {
      "inputs": [
        {
          "internalType": "uint256",
          "name": "_amount",
          "type": "uint256"
        }
      ],
      "name": "swapLinkToWmatic",
      "outputs": [],
      "stateMutability": "nonpayable",
      "type": "function"
    },
    {
      "inputs": [
        {
          "internalType": "uint256",
          "name": "_amount",
          "type": "uint256"
        }
      ],
      "name": "withdrawLink",
      "outputs": [],
      "stateMutability": "nonpayable",
      "type": "function"
    },
    {
      "inputs": [
        {
          "internalType": "uint256",
          "name": "_amount",
          "type": "uint256"
        }
      ],
      "name": "withdrawWmatic",
      "outputs": [],
      "stateMutability": "nonpayable",
      "type": "function"
    }
  ],
  "bytecode": "0x608060405234801561001057600080fd5b50733af8c569ab77af5230596acf0e8c2f9351d24c386000806101000a81548173ffffffffffffffffffffffffffffffffffffffff021916908373ffffffffffffffffffffffffffffffffffffffff16021790555073f7904a295a029a3abdffb6f12755974a958c7c25600160006101000a81548173ffffffffffffffffffffffffffffffffffffffff021916908373ffffffffffffffffffffffffffffffffffffffff1602179055507322b58f1ebedfca50fef632bd73368b2fda96d541600260006101000a81548173ffffffffffffffffffffffffffffffffffffffff021916908373ffffffffffffffffffffffffffffffffffffffff160217905550730bf499444525a23e7bb61997539725ca2e928138600360006101000a81548173ffffffffffffffffffffffffffffffffffffffff021916908373ffffffffffffffffffffffffffffffffffffffff16021790555073bf7a18ea5de0501f7559144e702b29c55b055ccb600460006101000a81548173ffffffffffffffffffffffffffffffffffffffff021916908373ffffffffffffffffffffffffffffffffffffffff16021790555073a36085f69e2889c224210f603d836748e7dc0088600560006101000a81548173ffffffffffffffffffffffffffffffffffffffff021916908373ffffffffffffffffffffffffffffffffffffffff16021790555073d0a1e359811322d97991e03f863a0c30c2cf029c600660006101000a81548173ffffffffffffffffffffffffffffffffffffffff021916908373ffffffffffffffffffffffffffffffffffffffff1602179055506115f8806102726000396000f3fe608060405234801561001057600080fd5b50600436106101375760003560e01c8063907265df116100b8578063ea2116ed1161007c578063ea2116ed1461033e578063eb91d37e1461035c578063f540bbe01461037a578063f77ab1e0146103aa578063f9eafa70146103c6578063faf2f277146103e257610137565b8063907265df14610298578063a81687de146102b6578063ad3db8b3146102d2578063bc70a63e146102f0578063e7407d721461032057610137565b80636b42d9b7116100ff5780636b42d9b7146101ce5780637a8042bd146101fe5780637bf1a6271461021a5780637f4f4ce81461023857806387cd00a71461026857610137565b80630339047a1461013c5780631e7096c8146101585780633a86b66a1461017657806357970e93146101925780635b66013a146101b0575b600080fd5b610156600480360381019061015191906111b6565b610412565b005b6101606105a8565b60405161016d9190611351565b60405180910390f35b610190600480360381019061018b91906111b6565b610658565b005b61019a61070b565b6040516101a79190611336565b60405180910390f35b6101b8610731565b6040516101c59190611351565b60405180910390f35b6101e860048036038101906101e391906111b6565b6107e1565b6040516101f5919061136c565b60405180910390f35b610218600480360381019061021391906111b6565b610835565b005b6102226108e8565b60405161022f9190611336565b60405180910390f35b610252600480360381019061024d91906111b6565b61090e565b60405161025f919061136c565b60405180910390f35b610282600480360381019061027d91906111b6565b610962565b60405161028f919061136c565b60405180910390f35b6102a06109b6565b6040516102ad9190611351565b60405180910390f35b6102d060048036038101906102cb91906111b6565b610a66565b005b6102da610c16565b6040516102e7919061136c565b60405180910390f35b61030a600480360381019061030591906111b6565b610cc8565b604051610317919061136c565b60405180910390f35b610328610d1c565b604051610335919061136c565b60405180910390f35b610346610dce565b6040516103539190611351565b60405180910390f35b610364610e7e565b6040516103719190611351565b60405180910390f35b610394600480360381019061038f91906111b6565b610f2c565b6040516103a1919061136c565b60405180910390f35b6103c460048036038101906103bf91906111b6565b610f80565b005b6103e060048036038101906103db91906111b6565b611035565b005b6103fc60048036038101906103f791906111b6565b6110ea565b604051610409919061136c565b60405180910390f35b600560009054906101000a900473ffffffffffffffffffffffffffffffffffffffff1673ffffffffffffffffffffffffffffffffffffffff166323b872dd3330846040518463ffffffff1660e01b8152600401610471939291906112d6565b602060405180830381600087803b15801561048b57600080fd5b505af115801561049f573d6000803e3d6000fd5b505050506040513d601f19601f820116820180604052508101906104c3919061118d565b5060006104ce610e7e565b90506000670de0b6b3a764000082846104e79190611422565b6104f191906113f1565b9050600660009054906101000a900473ffffffffffffffffffffffffffffffffffffffff1673ffffffffffffffffffffffffffffffffffffffff1663a9059cbb33836040518363ffffffff1660e01b815260040161055092919061130d565b602060405180830381600087803b15801561056a57600080fd5b505af115801561057e573d6000803e3d6000fd5b505050506040513d601f19601f820116820180604052508101906105a2919061118d565b50505050565b600080600360009054906101000a900473ffffffffffffffffffffffffffffffffffffffff1673ffffffffffffffffffffffffffffffffffffffff1663feaf968c6040518163ffffffff1660e01b815260040160a06040518083038186803b15801561061357600080fd5b505afa158015610627573d6000803e3d6000fd5b505050506040513d601f19601f8201168201806040525081019061064b9190611208565b5050509150508091505090565b600660009054906101000a900473ffffffffffffffffffffffffffffffffffffffff1673ffffffffffffffffffffffffffffffffffffffff1663a9059cbb33836040518363ffffffff1660e01b81526004016106b592919061130d565b602060405180830381600087803b1580156106cf57600080fd5b505af11580156106e3573d6000803e3d6000fd5b505050506040513d601f19601f82011682018060405250810190610707919061118d565b5050565b600560009054906101000a900473ffffffffffffffffffffffffffffffffffffffff1681565b600080600160009054906101000a900473ffffffffffffffffffffffffffffffffffffffff1673ffffffffffffffffffffffffffffffffffffffff1663feaf968c6040518163ffffffff1660e01b815260040160a06040518083038186803b15801561079c57600080fd5b505afa1580156107b0573d6000803e3d6000fd5b505050506040513d601f19601f820116820180604052508101906107d49190611208565b5050509150508091505090565b6000806107ec6105a8565b6ec097ce7bc90715b34b9f10000000006108069190611387565b90506000670de0b6b3a7640000828561081f9190611422565b61082991906113f1565b90508092505050919050565b600560009054906101000a900473ffffffffffffffffffffffffffffffffffffffff1673ffffffffffffffffffffffffffffffffffffffff1663a9059cbb33836040518363ffffffff1660e01b815260040161089292919061130d565b602060405180830381600087803b1580156108ac57600080fd5b505af11580156108c0573d6000803e3d6000fd5b505050506040513d601f19601f820116820180604052508101906108e4919061118d565b5050565b600660009054906101000a900473ffffffffffffffffffffffffffffffffffffffff1681565b6000806109196109b6565b6ec097ce7bc90715b34b9f10000000006109339190611387565b90506000670de0b6b3a7640000828561094c9190611422565b61095691906113f1565b90508092505050919050565b60008061096d610e7e565b6ec097ce7bc90715b34b9f10000000006109879190611387565b90506000670de0b6b3a764000082856109a09190611422565b6109aa91906113f1565b90508092505050919050565b600080600260009054906101000a900473ffffffffffffffffffffffffffffffffffffffff1673ffffffffffffffffffffffffffffffffffffffff1663feaf968c6040518163ffffffff1660e01b815260040160a06040518083038186803b158015610a2157600080fd5b505afa158015610a35573d6000803e3d6000fd5b505050506040513d601f19601f82011682018060405250810190610a599190611208565b5050509150508091505090565b600660009054906101000a900473ffffffffffffffffffffffffffffffffffffffff1673ffffffffffffffffffffffffffffffffffffffff166323b872dd3330846040518463ffffffff1660e01b8152600401610ac5939291906112d6565b602060405180830381600087803b158015610adf57600080fd5b505af1158015610af3573d6000803e3d6000fd5b505050506040513d601f19601f82011682018060405250810190610b17919061118d565b506000610b22610e7e565b6ec097ce7bc90715b34b9f1000000000610b3c9190611387565b90506000670de0b6b3a76400008284610b559190611422565b610b5f91906113f1565b9050600560009054906101000a900473ffffffffffffffffffffffffffffffffffffffff1673ffffffffffffffffffffffffffffffffffffffff1663a9059cbb33836040518363ffffffff1660e01b8152600401610bbe92919061130d565b602060405180830381600087803b158015610bd857600080fd5b505af1158015610bec573d6000803e3d6000fd5b505050506040513d601f19601f82011682018060405250810190610c10919061118d565b50505050565b6000600560009054906101000a900473ffffffffffffffffffffffffffffffffffffffff1673ffffffffffffffffffffffffffffffffffffffff166370a08231306040518263ffffffff1660e01b8152600401610c7391906112bb565b60206040518083038186803b158015610c8b57600080fd5b505afa158015610c9f573d6000803e3d6000fd5b505050506040513d601f19601f82011682018060405250810190610cc391906111df565b905090565b600080610cd3610dce565b6ec097ce7bc90715b34b9f1000000000610ced9190611387565b90506000670de0b6b3a76400008285610d069190611422565b610d1091906113f1565b90508092505050919050565b6000600660009054906101000a900473ffffffffffffffffffffffffffffffffffffffff1673ffffffffffffffffffffffffffffffffffffffff166370a08231306040518263ffffffff1660e01b8152600401610d7991906112bb565b60206040518083038186803b158015610d9157600080fd5b505afa158015610da5573d6000803e3d6000fd5b505050506040513d601f19601f82011682018060405250810190610dc991906111df565b905090565b600080600460009054906101000a900473ffffffffffffffffffffffffffffffffffffffff1673ffffffffffffffffffffffffffffffffffffffff1663feaf968c6040518163ffffffff1660e01b815260040160a06040518083038186803b158015610e3957600080fd5b505afa158015610e4d573d6000803e3d6000fd5b505050506040513d601f19601f82011682018060405250810190610e719190611208565b5050509150508091505090565b60008060008054906101000a900473ffffffffffffffffffffffffffffffffffffffff1673ffffffffffffffffffffffffffffffffffffffff1663feaf968c6040518163ffffffff1660e01b815260040160a06040518083038186803b158015610ee757600080fd5b505afa158015610efb573d6000803e3d6000fd5b505050506040513d601f19601f82011682018060405250810190610f1f9190611208565b5050509150508091505090565b600080610f37610731565b6ec097ce7bc90715b34b9f1000000000610f519190611387565b90506000670de0b6b3a76400008285610f6a9190611422565b610f7491906113f1565b90508092505050919050565b600660009054906101000a900473ffffffffffffffffffffffffffffffffffffffff1673ffffffffffffffffffffffffffffffffffffffff166323b872dd3330846040518463ffffffff1660e01b8152600401610fdf939291906112d6565b602060405180830381600087803b158015610ff957600080fd5b505af115801561100d573d6000803e3d6000fd5b505050506040513d601f19601f82011682018060405250810190611031919061118d565b5050565b600560009054906101000a900473ffffffffffffffffffffffffffffffffffffffff1673ffffffffffffffffffffffffffffffffffffffff166323b872dd3330846040518463ffffffff1660e01b8152600401611094939291906112d6565b602060405180830381600087803b1580156110ae57600080fd5b505af11580156110c2573d6000803e3d6000fd5b505050506040513d601f19601f820116820180604052508101906110e6919061118d565b5050565b6000806110f5610e7e565b90506000670de0b6b3a7640000828561110e9190611422565b61111891906113f1565b90508092505050919050565b60008151905061113381611566565b92915050565b6000815190506111488161157d565b92915050565b60008135905061115d81611594565b92915050565b60008151905061117281611594565b92915050565b600081519050611187816115ab565b92915050565b60006020828403121561119f57600080fd5b60006111ad84828501611124565b91505092915050565b6000602082840312156111c857600080fd5b60006111d68482850161114e565b91505092915050565b6000602082840312156111f157600080fd5b60006111ff84828501611163565b91505092915050565b600080600080600060a0868803121561122057600080fd5b600061122e88828901611178565b955050602061123f88828901611139565b945050604061125088828901611163565b935050606061126188828901611163565b925050608061127288828901611178565b9150509295509295909350565b6112888161147c565b82525050565b611297816114e4565b82525050565b6112a68161149a565b82525050565b6112b5816114c4565b82525050565b60006020820190506112d0600083018461127f565b92915050565b60006060820190506112eb600083018661127f565b6112f8602083018561127f565b61130560408301846112ac565b949350505050565b6000604082019050611322600083018561127f565b61132f60208301846112ac565b9392505050565b600060208201905061134b600083018461128e565b92915050565b6000602082019050611366600083018461129d565b92915050565b600060208201905061138160008301846112ac565b92915050565b60006113928261149a565b915061139d8361149a565b9250826113ad576113ac611537565b5b600160000383147f8000000000000000000000000000000000000000000000000000000000000000831416156113e6576113e5611508565b5b828205905092915050565b60006113fc826114c4565b9150611407836114c4565b92508261141757611416611537565b5b828204905092915050565b600061142d826114c4565b9150611438836114c4565b9250817fffffffffffffffffffffffffffffffffffffffffffffffffffffffffffffffff048311821515161561147157611470611508565b5b828202905092915050565b6000611487826114a4565b9050919050565b60008115159050919050565b6000819050919050565b600073ffffffffffffffffffffffffffffffffffffffff82169050919050565b6000819050919050565b600069ffffffffffffffffffff82169050919050565b60006114ef826114f6565b9050919050565b6000611501826114a4565b9050919050565b7f4e487b7100000000000000000000000000000000000000000000000000000000600052601160045260246000fd5b7f4e487b7100000000000000000000000000000000000000000000000000000000600052601260045260246000fd5b61156f8161148e565b811461157a57600080fd5b50565b6115868161149a565b811461159157600080fd5b50565b61159d816114c4565b81146115a857600080fd5b50565b6115b4816114ce565b81146115bf57600080fd5b5056fea264697066735822122038651b24e7735cf8858f4781e41ae93d4977035b8d77fba02c08070d239dd37764736f6c63430008040033",
  "linkReferences": {},
  "deployedLinkReferences": {}
}